:040000004DEF03F0CD
:1001800000122436485A5A6C7E90A2B4C6D8EAFFB0
:100600000000000E956E9280000E966EF19E7C802A
:1006100093802AEC03F03FEC03F0D3CF02F000D03C
:1006200046EC03F0016E01380F0B016E0150010D15
:10063000800EF324F66E010EF420F76EF86A000EB9
:10064000F8220800F5CFBEFF1E0E36EC03F0E8D707
:1006500000EF00F0000E7E6E000E7F6E7E80000EBA
:10066000C16E380EC06E010EC26E1200036EFA0E1D
:1006700000F0E82EFDD7032EFAD712001200F90E73
:10068000CB6E070ECA6E4C0EBD6E1200C28200D039
:10069000C2B2FED7C45012001200000EF86E000164
:0406A00001EF03F073
:020000040020DA
:08000000FFFFFFFFFFFFFFFF00
:020000040030CA
:0E000000FF08071EFF0F81FF0FC00FE00F402B
:00000001FF
