:0400000040EF03F0DA
:100180000001020305070B0F171F2F3F5F7FBFFF03
:100600000000000E956E9280F19E7C80938024EC19
:1006100003F000D039EC03F0016E01380F0B016ECE
:100620000150010D800EF324F66E010EF420F76EDA
:10063000F86A000EF8220800F5CF8CFF1E0E30EC91
:1006400003F0E8D700EF00F0000E7E6E000E7F6E24
:100650007E80000EC16E380EC06E010EC26E12009A
:10066000026EFA0E00F0E82EFDD7022EFAD7120025
:100670001200C28200D0C2B2FED7C45012001200D3
:0A068000000EF86E000101EF03F018
:020000040020DA
:08000000FFFFFFFFFFFFFFFF00
:020000040030CA
:0E000000FF08071EFF0F81FF0FC00FE00F402B
:00000001FF
