:0400000049EF03F0D1
:1001800000122436485A5A6C7E90A2B4C6D8EAFFB0
:100600000000000E956E9280F19E7C80938026EC17
:1006100003F03BEC03F000D042EC03F0016E013834
:100620000F0B016E0150010D800EF324F66E010ECA
:10063000F420F76EF86A000EF8220800F5CFBEFF2E
:100640001E0E32EC03F0E8D700EF00F0000E7E6ED5
:10065000000E7F6E7E80000EC16E380EC06E010EE1
:10066000C26E1200026EFA0E00F0E82EFDD7022EC6
:10067000FAD712001200070ECA6EF90ECB6E4C0E9E
:10068000BD6E1200C28200D0C2B2FED7C4501200AA
:0C0690001200000EF86E000101EF03F0F4
:020000040020DA
:08000000FFFFFFFFFFFFFFFF00
:020000040030CA
:0E000000FF08071EFF0F81FF0FC00FE00F402B
:00000001FF
