:0400000094EF03F086
:10018000000101020305070B0F171F2F3F5F7FBF01
:02019000FF006E
:100600000000000E066E04AE07D0036C041ED8B0C6
:10061000042A010E066E00D002AE07D0016C021E45
:10062000D8B0022A010E061A00D0000E086E000E85
:10063000076E03500410D8B421D0010E056E05D00A
:10064000D89003360436052A00D004BE02D0F8D76D
:1006500000D0D890073608360350015C0450025889
:10066000D8A006D00350015E0450025A078000D083
:10067000D89004320332052EECD700D00650D8B4FF
:1006800005D0076C081ED8B0082A00D007C001F0BA
:1006900008C002F012001200000E956E9280F19ECA
:1006A0007C80938078EC03F000D08DEC03F0096E31
:1006B000092A09C001F0026A000E046E100E036ED2
:1006C00001EC03F00150096E0950010D800EF32476
:1006D000F66E010EF420F76EF86A000EF82208009C
:1006E000F5CF8CFF1E0E84EC03F0DFD700EF00F097
:1006F000000E7E6E000E7F6E7E80000EC16E380E84
:10070000C06E010EC26E1200016EFA0E00F0E82EED
:10071000FDD7012EFAD712001200C28200D0C2B259
:10072000FED7C45012001200000EF86E00014CEF0C
:0207300003F0D4
:020000040020DA
:08000000FFFFFFFFFFFFFFFF00
:020000040030CA
:0E000000FF08071EFF0F81FF0FC00FE00F402B
:00000001FF
