:04000000C4EF3FF01A
:107F88000001D0EF3FF0016EFA0E00F0E82EFDD7A9
:107F9800012EFAD712001200000E956E000E8C6E9C
:107FA800949494920C0EBD6E0C0EBA6ECB680C0EA7
:107FB800CA6E190EBE6E3C0EBA6EBB6800D08C84B9
:107FC8000A0EBE6E960EC7EC3FF03C0EBE6E960EC5
:107FD800C7EC3FF0780EBE6E960EC7EC3FF08C945F
:107FE800B40EBE6E960EC7EC3FF0BE68960EC7EC98
:087FF8003FF0E5D700EF00F0B7
:020000040020DA
:08000000FFFFFFFFFFFFFFFF00
:020000040030CA
:0E000000FF08071EFF0F81FF0FC00FE00F402B
:00000001FF
