:0400000060EF00F0BD
:10000800FACF12F0FBCF13F0E9CF14F062EF00F053
:10001800D8CF01F0E8CF02F0E0CF03F0FACF04F038
:10002800FBCF05F0E9CF06F0EACF07F0E1CF08F003
:10003800E2CF09F0D9CF0AF0DACF0BF0F3CF0CF00A
:10004800F4CF0DF0F6CF0EF0F7CF0FF0F8CF10F099
:10005800F5CF11F0F0A002D0F0908C72F2A009D088
:1000680081CF21F0F29021B88C7821AA02D08C7A25
:1000780000D011C0F5FF10C0F8FF0FC0F7FF0EC089
:10008800F6FF0DC0F4FF0CC0F3FF0BC0DAFF0AC087
:10009800D9FF09C0E2FF08C0E1FF07C0EAFF06C0B8
:1000A800E9FF05C0FBFF04C0FAFF03C0E0FF02C080
:1000B800E8FF01C0D8FF1000D7EF00F0EACF15F035
:1000C800E1CF16F0E2CF17F0D9CF18F0DACF19F058
:1000D800F3CF1AF0F4CF1BF0F6CF1CF0F7CF1DF0DA
:1000E800F8CF1EF0F5CF1FF0F2A202D0F2928C707A
:1000F800F0A203D0F0928C7400D01FC0F5FF1EC090
:10010800F8FF1DC0F7FF1CC0F6FF1BC0F4FF1AC0A4
:10011800F3FF19C0DAFF18C0D9FF17C0E2FF16C0F5
:10012800E1FF15C0EAFF14C0E9FF13C0FBFF12C0CE
:10013800FAFF1100000E956E800E8C6EF19E7C8089
:100148007C827C847C887C8A93807F9893827F944D
:1001580093847F9093887F96938AF19CF292F28899
:10016800F19AF09CF090F086F198F08EF092F08879
:10017800F19081CF21F0F2907D887D8AF286D08E31
:10018800F28CF28E00D08C7EFA0ECEEC00F0FBD70B
:1001980060EF00F0206EFA0E00F0E82EFDD7202E5A
:0C01A800FAD71200120000019EEF00F0D8
:020000040020DA
:08000000FFFFFFFFFFFFFFFF00
:020000040030CA
:0E000000FF08071EFF0F81FF0FC00FE00F402B
:00000001FF
