:040000006CEF00F0B1
:10000800FACF12F0FBCF13F0E9CF14F06EEF00F047
:10001800D8CF01F0E8CF02F0E0CF03F0FACF04F038
:10002800FBCF05F0E9CF06F0EACF07F0E1CF08F003
:10003800E2CF09F0D9CF0AF0DACF0BF0F3CF0CF00A
:10004800F4CF0DF0F6CF0EF0F7CF0FF0F8CF10F099
:10005800F5CF11F0F2A419D0F294D9EC00F0D76ED4
:10006800000ED66E2150D8A408D0D8902036205043
:10007800D8A40BD0010E07D008D0D8902032205039
:10008800D8A403D0800E206E00D011C0F5FF10C098
:10009800F8FF0FC0F7FF0EC0F6FF0DC0F4FF0CC04D
:1000A800F3FF0BC0DAFF0AC0D9FF09C0E2FF08C09E
:1000B800E1FF07C0EAFF06C0E9FF05C0FBFF04C077
:1000C800FAFF03C0E0FF02C0E8FF01C0D8FF10003C
:1000D800E0EF00F0EACF15F0E1CF16F0E2CF17F02D
:1000E800D9CF18F0DACF19F0F3CF1AF0F4CF1BF00C
:1000F800F6CF1CF0F7CF1DF0F8CF1EF0F5CF1FF0AC
:10010800F2A209D0F2922150D8A402D0010E01D057
:10011800000E216E00D01FC0F5FF1EC0F8FF1DC0E5
:10012800F7FF1CC0F6FF1BC0F4FF1AC0F3FF19C08D
:10013800DAFF18C0D9FF17C0E2FF16C0E1FF15C0EB
:10014800EAFF14C0E9FF13C0FBFF12C0FAFF110059
:10015800010E206E000E956E9280F19E7C80938039
:10016800C4EC00F0CFEC00F0F19CF292F288D08E53
:10017800F28CF28E00D020C08CFFFDD76CEF00F01F
:10018800F294F194F28A010ED56E000ED76E000E2D
:10019800D66ED58E1200000E7E6E000E7F6E7E80AB
:1001A800380EC06E010EC26E1200C28200D0C2B2FA
:1001B800FED7C45012001200216A0001ACEF00F013
:020000040020DA
:08000000FFFFFFFFFFFFFFFF00
:020000040030CA
:0E000000FF08071EFF0F81FF0FC00FE00F402B
:00000001FF
