:04000000A3EF05F075
:10060000004C696E65203030302000546573746989
:100610006E672032000075EC05F0000E85EC04F0EA
:10062000000E02EC05F00F0E02EC05F0110E02ECCC
:1006300005F0110E02EC05F0110E02EC05F00F0EA4
:1006400002EC05F0070E02EC05F0070E02EC05F0D7
:10065000080E85EC04F01F0E02EC05F0110E02EC02
:1006600005F0110E02EC05F0150E02EC05F0110E6E
:1006700002EC05F0110E02EC05F0110E02EC05F093
:100680001F0E02EC05F0020E22EC05F00B0E036EBD
:10069000060E046E27EC04F00D0E126E7F0E116E26
:1006A00060EC05F0400EB2EC04F0010E036E060E95
:1006B000046E27EC04F0000E02EC05F0010E02ECD3
:1006C00005F0020E02EC05F0030E02EC05F0640EDC
:1006D000176E00D0640E9AEC05F01728176E450EC1
:1006E000B2EC04F017C011F0126A60EC05F0F2D71A
:1006F00000EF00F0066E959A9598959C8C9A8C98D0
:100700008C9C260E91EC05F0300E22EC05F0050EC7
:1007100085EC05F0300E22EC05F0010E85EC05F0BD
:10072000320E22EC05F000D042EC05F00009D8B4FE
:1007300002D0FAD700D042EC05F00009D8A4FBD7CC
:10074000065022EC05F000D042EC05F00009D8A4D8
:10075000FBD7080E22EC05F000D042EC05F00009B2
:10076000D8A4FBD70F0E22EC05F000D042EC05F028
:100770000009D8A4FBD7010E22EC05F000D042EC12
:1007800005F00009D8A4FBD7040E22EC05F000D038
:1007900042EC05F00009D8A4FBD7800EB2EC04F0BF
:1007A000120012000AC00EF00BC00FF000D00EC0F5
:1007B00001F00FC002F00CC003F00DC004F057ECC4
:1007C00004F001C00EF002C00FF0084A092A0E50D2
:1007D0000F10D8A4ECD708C0D9FF09C0DAFF000E6B
:1007E000DF6E0806D8A0090600D00AC001F00BC0D1
:1007F00002F00CC003F00DC004F0DCEC04F001507A
:10080000106E0AC001F00BC002F00CC003F00DC066
:1008100004F057EC04F001C00AF002C00BF0090E1E
:10082000106402D0070E1026300E102608C0D9FF23
:1008300009C0DAFF10C0DFFF0806D8A009060A5079
:100840000B10D8A4D2D7084A092A120012001BD0D4
:1008500000D042EC05F00009D8A4FBD703C0F6FF96
:1008600004C0F7FFF86A050EF76403D00800F550DE
:1008700005D0F6CFE9FFF7CFEAFFEF5002EC05F025
:10088000034A042A00D003C0F6FF04C0F7FFF86A49
:10089000050EF76403D00800F55005D0F6CFE9FF48
:1008A000F7CFEAFFEF500009D8A4D3D71200000E0B
:1008B000066E000E056E03500410D8B421D0010E50
:1008C000076E05D0D89003360436072A00D004BE40
:1008D00002D0F8D700D0D890053606360350015C18
:1008E00004500258D8A006D00350015E0450025AAA
:1008F000058000D0D89004320332072EECD700D008
:1009000005C001F006C002F01200056EF00E95164B
:10091000F00E83160550026E036A400E0212000E9E
:100920000312040E046E033403320232042EFBD78A
:1009300002500F0B83128C9A8C98AFEC05F08C8CC4
:10094000AFEC05F08C9CF00E831605500F0B831254
:10095000AFEC05F08C8CAFEC05F08C9C0F0E951273
:1009600012001200056EF00E9516F00E831605505B
:10097000026E036A028E040E046E033403320232E6
:10098000042EFBD702500F0B83128C9A8C98AFEC7D
:1009900005F08C8CAFEC05F08C9CF00E83160550A6
:1009A0000F0B8312AFEC05F08C8CAFEC05F08C9C38
:1009B0000F0E95121200120003500410D8B41DD06F
:1009C000010E056E05D0D89003360436052A00D0F6
:1009D00004BE02D0F8D700D00350015C0450025886
:1009E000D8A005D00350015E0450025A00D0D89020
:1009F00004320332052EF0D700D001C001F002C04E
:100A000002F01200026EF00E9516F00E83160238F8
:100A10000F0B0F0B83128C888C9AAFEC05F08C8C2B
:100A2000AFEC05F08C9CF00E831602500F0B831276
:100A3000AFEC05F08C8CAFEC05F08C9C0F0E951292
:100A400012001200026EF00E9516F00E8316023898
:100A50000F0B0F0B83128C9A8C98AFEC05F08C8CDB
:100A6000AFEC05F08C9CF00E831602500F0B831236
:100A7000AFEC05F08C8CAFEC05F08C9C0F0E951252
:100A8000120012008C8A8C98AFEC05F08C8CAFECC5
:100A900005F083A60AD08C9CAFEC05F08C8CAFECF3
:100AA00005F08C9C8C9A010E12008C9CAFEC05F02A
:100AB0008C8CAFEC05F08C9C8C9A000E120012000E
:100AC000130E086E000E096E11C00AF012C00BF072
:100AD000000E0D6E0A0E0C6ED2EC03F0130E036EB8
:100AE000000E046E27EC04F01200280E7AEC03F0DE
:100AF00000D042EC05F00009D8A4FBD7060E22EC8A
:100B000005F00C0E22EC05F01200026E0D0E016EC7
:100B1000FC0EE82EFED7012EFCD7022EF7D71200CE
:100B20001200016E210EE82EFED700F0012EFAD73A
:100B300012001200016EFA0E00F0E82EFDD7012E11
:100B4000FAD712001200176A000EF86E00010BEFC0
:100B500003F0016E00F0012EFDD712001200120EFC
:060B6000A9EC05F01200F3
:020000040020DA
:08000000FFFFFFFFFFFFFFFF00
:020000040030CA
:0E000000FF08071EFF0F81FF0FC00FE00F402B
:00000001FF
