:04000000CBEF05F04D
:10060000004C696E65203030302000546573746989
:100610006E67200000007E9A7E9C7E9E9DEC05F019
:10062000000E8FEC04F0000E0CEC05F00F0E0CEC3D
:1006300005F0110E0CEC05F0110E0CEC05F0110E8E
:100640000CEC05F00F0E0CEC05F0070E0CEC05F0B1
:10065000070E0CEC05F0080E8FEC04F01F0E0CECEE
:1006600005F0110E0CEC05F0110E0CEC05F0150E5A
:100670000CEC05F0110E0CEC05F0110E0CEC05F075
:10068000110E0CEC05F01F0E0CEC05F0020E2CEC1C
:1006900005F00B0E036E060E046E31EC04F00D0E29
:1006A000126E7F0E116E88EC05F0400EBCEC04F06B
:1006B000010E036E060E046E31EC04F0000E0CEC1D
:1006C00005F0010E0CEC05F0020E0CEC05F0030E2B
:1006D0000CEC05F0640E176E00D00A0EC2EC05F0AB
:1006E0001728176E450EBCEC04F017C011F0126A03
:1006F00088EC05F0F2D700EF00F0066E260EB9EC9C
:1007000005F0F00E8316F00E95169692969096943C
:100710008D928D908D94260EB9EC05F0300E2CEC58
:1007200005F0050EADEC05F0300E2CEC05F0010ED9
:10073000ADEC05F0320E2CEC05F000D04CEC05F0E1
:100740000009D8B402D0FAD700D06AEC05F000094D
:10075000D8A4FBD706502CEC05F000D06AEC05F0CD
:100760000009D8A4FBD7080E2CEC05F000D06AECE9
:1007700005F00009D8A4FBD70F0E2CEC05F000D033
:100780006AEC05F00009D8A4FBD7010E2CEC05F0AB
:1007900000D06AEC05F00009D8A4FBD7040E2CECBD
:1007A00005F000D06AEC05F00009D8A4FBD7800E54
:1007B000BCEC04F0120012000AC00EF00BC00FF0E7
:1007C00000D00EC001F00FC002F00CC003F00DC04D
:1007D00004F061EC04F001C00EF002C00FF0084A12
:1007E000092A0E500F10D8A4ECD708C0D9FF09C0B1
:1007F000DAFF000EDF6E0806D8A0090600D00AC096
:1008000001F00BC002F00CC003F00DC004F0E6ECE8
:1008100004F00150106E0AC001F00BC002F00CC0D1
:1008200003F00DC004F061EC04F001C00AF002C056
:100830000BF0090E106402D0070E1026300E1026A1
:1008400008C0D9FF09C0DAFF10C0DFFF0806D8A032
:1008500009060A500B10D8A4D2D7084A092A120058
:1008600012001BD000D06AEC05F00009D8A4FBD719
:1008700003C0F6FF04C0F7FFF86A050EF76403D063
:100880000800F55005D0F6CFE9FFF7CFEAFFEF50AB
:100890000CEC05F0034A042A00D003C0F6FF04C0A4
:1008A000F7FFF86A050EF76403D00800F55005D08D
:1008B000F6CFE9FFF7CFEAFFEF500009D8A4D3D76E
:1008C0001200000E066E000E056E03500410D8B420
:1008D00021D0010E076E05D0D89003360436072AC2
:1008E00000D004BE02D0F8D700D0D8900536063626
:1008F0000350015C04500258D8A006D00350015E9A
:100900000450025A058000D0D89004320332072EDA
:10091000ECD700D005C001F006C002F01200056E51
:10092000F00E9516F00E83160550026E036A400E07
:100930000212000E0312040E046E0334033202325C
:10094000042EFBD702500F0B83128D928D90D7ECA3
:1009500005F08D84D7EC05F08D94F00E83160550CC
:100960000F0B8312D7EC05F08D84D7EC05F08D9436
:100970000F0E951212001200056EF00E9516F00E75
:1009800083160550026E036A028E040E046E033451
:1009900003320232042EFBD702500F0B83128D92CA
:1009A0008D90D7EC05F08D84D7EC05F08D94F00E8A
:1009B000831605500F0B8312D7EC05F08D84D7EC0E
:1009C00005F08D940F0E95121200120003500410C2
:1009D000D8B41DD0010E056E05D0D890033604366C
:1009E000052A00D004BE02D0F8D700D00350015C25
:1009F00004500258D8A005D00350015E0450025A9A
:100A000000D0D89004320332052EF0D700D001C0B8
:100A100001F002C002F01200026EF00E9516F00E08
:100A2000831602380F0B0F0B83128D808D92D7EC3B
:100A300005F08D84D7EC05F08D94F00E83160250EE
:100A40000F0B8312D7EC05F08D84D7EC05F08D9455
:100A50000F0E951212001200026EF00E9516F00E97
:100A6000831602380F0B0F0B83128D928D90D7ECEB
:100A700005F08D84D7EC05F08D94F00E83160250AE
:100A80000F0B8312D7EC05F08D84D7EC05F08D9415
:100A90000F0E9512120012008A8C8A9AD7EC05F07C
:100AA0008A88D7EC05F081A60AD08A98D7EC05F0A1
:100AB0008A88D7EC05F08A988A9C010E12008A98E1
:100AC000D7EC05F08A88D7EC05F08A988A9C000E4E
:100AD000120012008D828D90D7EC05F08D84D7EC3A
:100AE00005F083A60AD08D94D7EC05F08D84D7EC61
:100AF00005F08D948D92010E12008D94D7EC05F0C7
:100B00008D84D7EC05F08D948D92000E12001200AA
:100B1000130E086E000E096E11C00AF012C00BF021
:100B2000000E0D6E0A0E0C6EDCEC03F0130E036E5D
:100B3000000E046E31EC04F01200280E7DEC03F080
:100B400000D06AEC05F00009D8A4FBD7060E2CEC07
:100B500005F00C0E2CEC05F01200026E0D0E016E6D
:100B6000FC0EE82EFED7012EFCD7022EF7D712007E
:100B70001200016E210EE82EFED700F0012EFAD7EA
:100B800012001200016EFA0E00F0E82EFDD7012EC1
:100B9000FAD712001200176A000EF86E00010BEF70
:100BA00003F0016E00F0012EFDD712001200120EAC
:060BB000D1EC05F012007B
:020000040020DA
:08000000FFFFFFFFFFFFFFFF00
:020000040030CA
:0E000000FF08071EFF0F81FF0FC00FE00F402B
:00000001FF
