:04000000E3EF05F035
:10060000004C696E65203030302000546573746989
:100610006E67200000007E9A7E9C7E9EE6EC04F0D1
:10062000000E8FEC04F0000E34EC05F00F0E34ECED
:1006300005F0110E34EC05F0110E34EC05F0110E3E
:1006400034EC05F00F0E34EC05F0070E34EC05F039
:10065000070E34EC05F0080E8FEC04F01F0E34EC9E
:1006600005F0110E34EC05F0110E34EC05F0150E0A
:1006700034EC05F0110E34EC05F0110E34EC05F0FD
:10068000110E34EC05F01F0E34EC05F0020E54ECA4
:1006900005F00B0E036E060E046E31EC04F00D0E29
:1006A000126E7F0E116EB0EC05F0400EBCEC04F043
:1006B000010E036E060E046E31EC04F0000E34ECF5
:1006C00005F0010E34EC05F0020E34EC05F0030EDB
:1006D00034EC05F0640E176E00D00A0EDAEC05F06B
:1006E0001728176E450EBCEC04F017C011F0126A03
:1006F000B0EC05F0F2D700EF00F0066E260ED1EC5C
:1007000005F0F00E8316F00E95169692969096943C
:100710008D928D908D94260ED1EC05F0300E54EC18
:1007200005F0050EC5EC05F0300E54EC05F0010E99
:10073000C5EC05F0320E54EC05F000D074EC05F079
:100740000009D8B402D0FAD700D092EC05F0000925
:10075000D8A4FBD7065054EC05F000D092EC05F07D
:100760000009D8A4FBD7080E54EC05F000D092EC99
:1007700005F00009D8A4FBD70F0E54EC05F000D00B
:1007800092EC05F00009D8A4FBD7010E54EC05F05B
:1007900000D092EC05F00009D8A4FBD7040E54EC6D
:1007A00005F000D092EC05F00009D8A4FBD7800E2C
:1007B000BCEC04F0120012000AC00EF00BC00FF0E7
:1007C00000D00EC001F00FC002F00CC003F00DC04D
:1007D00004F061EC04F001C00EF002C00FF0084A12
:1007E000092A0E500F10D8A4ECD708C0D9FF09C0B1
:1007F000DAFF000EDF6E0806D8A0090600D00AC096
:1008000001F00BC002F00CC003F00DC004F00EECC0
:1008100005F00150106E0AC001F00BC002F00CC0D0
:1008200003F00DC004F061EC04F001C00AF002C056
:100830000BF0090E106402D0070E1026300E1026A1
:1008400008C0D9FF09C0DAFF10C0DFFF0806D8A032
:1008500009060A500B10D8A4D2D7084A092A120058
:1008600012001BD000D092EC05F00009D8A4FBD7F1
:1008700003C0F6FF04C0F7FFF86A050EF76403D063
:100880000800F55005D0F6CFE9FFF7CFEAFFEF50AB
:1008900034EC05F0034A042A00D003C0F6FF04C07C
:1008A000F7FFF86A050EF76403D00800F55005D08D
:1008B000F6CFE9FFF7CFEAFFEF500009D8A4D3D76E
:1008C0001200000E066E000E056E03500410D8B420
:1008D00021D0010E076E05D0D89003360436072AC2
:1008E00000D004BE02D0F8D700D0D8900536063626
:1008F0000350015C04500258D8A006D00350015E9A
:100900000450025A058000D0D89004320332072EDA
:10091000ECD700D005C001F006C002F01200056E51
:10092000F00E9516F00E83160550026E036A400E07
:100930000212000E0312040E046E0334033202325C
:10094000042EFBD702500F0B83128D928D90EFEC8B
:1009500005F08D84EFEC05F08D94F00E83160550B4
:100960000F0B8312EFEC05F08D84EFEC05F08D9406
:100970000F0E951212001200056EF00E9516F00E75
:1009800083160550026E036A028E040E046E033451
:1009900003320232042EFBD702500F0B83128D92CA
:1009A0008D90EFEC05F08D84EFEC05F08D94F00E5A
:1009B000831605500F0B8312EFEC05F08D84EFECDE
:1009C00005F08D940F0E951212001200280E7DEC8A
:1009D00003F000D092EC05F00009D8A4FBD7060E76
:1009E00054EC05F000D092EC05F00009D8A4FBD738
:1009F0000C0E54EC05F000D092EC05F00009D8A4E0
:100A0000FBD7010E54EC05F000D092EC05F0000984
:100A1000D8A4FBD7420E54EC05F01200035004108A
:100A2000D8B41DD0010E056E05D0D890033604361B
:100A3000052A00D004BE02D0F8D700D00350015CD4
:100A400004500258D8A005D00350015E0450025A49
:100A500000D0D89004320332052EF0D700D001C068
:100A600001F002C002F01200026EF00E9516F00EB8
:100A7000831602380F0B0F0B83128D808D92EFECD3
:100A800005F08D84EFEC05F08D94F00E8316025086
:100A90000F0B8312EFEC05F08D84EFEC05F08D94D5
:100AA0000F0E951212001200026EF00E9516F00E47
:100AB000831602380F0B0F0B83128D928D90EFEC83
:100AC00005F08D84EFEC05F08D94F00E8316025046
:100AD0000F0B8312EFEC05F08D84EFEC05F08D9495
:100AE0000F0E9512120012008A8C8A9AEFEC05F014
:100AF0008A88EFEC05F081A60AD08A98EFEC05F021
:100B00008A88EFEC05F08A988A9C010E12008A9878
:100B1000EFEC05F08A88EFEC05F08A988A9C000ECD
:100B2000120012008D828D90EFEC05F08D84EFECB9
:100B300005F083A60AD08D94EFEC05F08D84EFECE0
:100B400005F08D948D92010E12008D94EFEC05F05E
:100B50008D84EFEC05F08D948D92000E1200120042
:100B6000130E086E000E096E11C00AF012C00BF0D1
:100B7000000E0D6E0A0E0C6EDCEC03F0130E036E0D
:100B8000000E046E31EC04F01200026E0D0E016EC8
:100B9000FC0EE82EFED7012EFCD7022EF7D712004E
:100BA0001200016E210EE82EFED700F0012EFAD7BA
:100BB00012001200016EFA0E00F0E82EFDD7012E91
:100BC000FAD712001200176A000EF86E00010BEF40
:100BD00003F0016E00F0012EFDD712001200120E7C
:060BE000E9EC05F0120033
:020000040020DA
:08000000FFFFFFFFFFFFFFFF00
:020000040030CA
:0E000000FF08071EFF0F81FF0FC00FE00F402B
:00000001FF
