:040000006BEF04F0AE
:100600000048656C6C6F20576F726C640055707396
:1006100069646520446F776E0000066E949A949822
:10062000949C8B9A8B988B9C78EC04F0300EECECBD
:1006300003F0050E56EC04F0300EECEC03F0010E66
:1006400056EC04F0320EECEC03F000D00CEC04F0AD
:100650000009D8B402D0FAD700D00CEC04F000099D
:10066000D8A4FBD70650ECEC03F000D00CEC04F05F
:100670000009D8A4FBD7080EECEC03F000D00CEC7A
:1006800004F00009D8A4FBD70F0EECEC03F000D067
:100690000CEC04F00009D8A4FBD7010EECEC03F03D
:1006A00000D00CEC04F00009D8A4FBD7040EECEC4D
:1006B00003F000D00CEC04F00009D8A4FBD7800EA6
:1006C000A2EC03F012001200000E956E000E8C6E6C
:1006D00046EC04F0010E036E060E046E2AEC04F0E4
:1006E000400EA2EC03F00D0E036E060E046E2AEC13
:1006F00004F000D08C80320E62EC04F08C82320E5A
:1007000062EC04F08C84320E62EC04F08C86320EC3
:1007100062EC04F08C88320E62EC04F08C8A320EAB
:1007200062EC04F08C8C320E62EC04F08C8E320E93
:1007300062EC04F0000E8C6E320E62EC04F0DAD73C
:1007400000EF00F0056EF00E9416F00E82160550C4
:10075000026E036A028E040E046E03340332023208
:10076000042EFBD702500F0B82128B9A8B987CECD5
:1007700004F08B8C7CEC04F08B9CF00E8216055000
:100780000F0B82127CEC04F08B8C7CEC04F08B9CC5
:100790000F0E941212001200026EF00E9416F00E5C
:1007A000821602380F0B0F0B82128B888B9A7CEC0F
:1007B00004F08B8C7CEC04F08B9CF00E82160250C3
:1007C0000F0B82127CEC04F08B8C7CEC04F08B9C85
:1007D0000F0E941212001200026EF00E9416F00E1C
:1007E000821602380F0B0F0B82128B9A8B987CECBF
:1007F00004F08B8C7CEC04F08B9CF00E8216025083
:100800000F0B82127CEC04F08B8C7CEC04F08B9C44
:100810000F0E9412120012008B8A8B987CEC04F05D
:100820008B8C7CEC04F082A60AD08B9C7CEC04F0D0
:100830008B8C7CEC04F08B9C8B9A010E12008B9CB1
:100840007CEC04F08B8C7CEC04F08B9C8B9A000E7F
:100850001200120011D000D00CEC04F00009D8A452
:10086000FBD703C0F6FF04C0F7FF0800F550CCEC3F
:1008700003F0034A042A00D003C0F6FF04C0F7FFC8
:100880000800F5500009D8A4E7D71200280E0DEC97
:1008900003F000D00CEC04F00009D8A4FBD7060E3E
:1008A000ECEC03F00C0EECEC03F01200026E0D0EFB
:1008B000016EFC0EE82EFED7012EFCD7022EF7D7D4
:1008C00012001200016EFA0E00F0E82EFDD7012E84
:1008D000FAD712001200000EF86E060EF76E000135
:1008E00064EF03F0016E00F0012EFDD7120012003C
:1008F0001E0E72EC04F01200120E72EC04F01200E4
:020000040020DA
:08000000FFFFFFFFFFFFFFFF00
:020000040030CA
:0E000000FF08071EFF0F81FF0FC00FE00F402B
:00000001FF
