:04000000CAEF05F04E
:10060000004C4344204C696E6520322000546573D1
:1006100074696E6720000000000E956E000E8C6EEF
:100620009CEC05F0000EACEC04F0000E29EC05F09B
:100630000F0E29EC05F0110E29EC05F0110E29EC36
:1006400005F0110E29EC05F00F0E29EC05F0070E50
:1006500029EC05F0070E29EC05F0080EACEC04F0CF
:100660001F0E29EC05F0110E29EC05F0110E29ECF6
:1006700005F0150E29EC05F0110E29EC05F0110E10
:1006800029EC05F0110E29EC05F01F0E29EC05F000
:10069000020E49EC05F00D0E036E060E046E4EECD4
:1006A00004F00D0E126E7F0E116E87EC05F0400EF9
:1006B000D9EC04F0010E036E060E046E4EEC04F04D
:1006C000000E29EC05F0010E29EC05F0020E29ECD4
:1006D00005F0030E29EC05F0640E176E00D08C8037
:1006E0000A0EC1EC05F08C820A0EC1EC05F08C8478
:1006F0000A0EC1EC05F08C860A0EC1EC05F08C8860
:100700000A0EC1EC05F08C8A0A0EC1EC05F08C8C47
:100710000A0EC1EC05F08C8E0A0EC1EC05F0000E3D
:100720008C6E0A0EC1EC05F01728176E440ED9EC3A
:1007300004F017C011F0126A87EC05F0D0D700EF73
:1007400000F0066E949A9498949C8B9A8B988B9C4C
:10075000260EB8EC05F0300E49EC05F0050EACECB9
:1007600005F0300E49EC05F0010EACEC05F0320E50
:1007700049EC05F000D069EC05F00009D8B402D0CE
:10078000FAD700D069EC05F00009D8A4FBD70650D1
:1007900049EC05F000D069EC05F00009D8A4FBD7BE
:1007A000080E49EC05F000D069EC05F00009D8A46A
:1007B000FBD70F0E49EC05F000D069EC05F00009FD
:1007C000D8A4FBD7010E49EC05F000D069EC05F088
:1007D0000009D8A4FBD7040E49EC05F000D069EC61
:1007E00005F00009D8A4FBD7800ED9EC04F0120064
:1007F00012000AC00EF00BC00FF000D00EC001F0C6
:100800000FC002F00CC003F00DC004F07EEC04F049
:1008100001C00EF002C00FF0084A092A0E500F1056
:10082000D8A4ECD708C0D9FF09C0DAFF000EDF6EEC
:100830000806D8A0090600D00AC001F00BC002F0DB
:100840000CC003F00DC004F003EC05F00150106E75
:100850000AC001F00BC002F00CC003F00DC004F0A0
:100860007EEC04F001C00AF002C00BF0090E106427
:1008700002D0070E1026300E102608C0D9FF09C07E
:10088000DAFF10C0DFFF0806D8A009060A500B10D7
:10089000D8A4D2D7084A092A120012001BD000D0CF
:1008A00069EC05F00009D8A4FBD703C0F6FF04C02B
:1008B000F7FFF86A050EF76403D00800F55005D07D
:1008C000F6CFE9FFF7CFEAFFEF5029EC05F0034A36
:1008D000042A00D003C0F6FF04C0F7FFF86A050E33
:1008E000F76403D00800F55005D0F6CFE9FFF7CF45
:1008F000EAFFEF500009D8A4D3D71200000E066E0D
:10090000000E056E03500410D8B421D0010E076EFE
:1009100005D0D89003360436072A00D004BE02D092
:10092000F8D700D0D890053606360350015C045045
:100930000258D8A006D00350015E0450025A058028
:1009400000D0D89004320332072EECD700D005C077
:1009500001F006C002F01200056EF00E9416F00EC3
:1009600082160550026E036A400E0212000E031238
:10097000040E046E033403320232042EFBD70250FD
:100980000F0B82128B9A8B98D6EC05F08B8CD6ECE1
:1009900005F08B9CF00E821605500F0B8212D6ECE0
:1009A00005F08B8CD6EC05F08B9C0F0E9412120088
:1009B0001200056EF00E9416F00E82160550026EAF
:1009C000036A028E040E046E033403320232042ED4
:1009D000FBD702500F0B82128B9A8B98D6EC05F046
:1009E0008B8CD6EC05F08B9CF00E821605500F0B0D
:1009F0008212D6EC05F08B8CD6EC05F08B9C0F0E9A
:100A000094121200120003500410D8B41DD0010E2D
:100A1000056E05D0D89003360436052A00D004BEF2
:100A200002D0F8D700D00350015C04500258D8A07F
:100A300005D00350015E0450025A00D0D890043211
:100A40000332052EF0D700D001C001F002C002F041
:100A50001200026EF00E9416F00E821602380F0B82
:100A60000F0B82128B888B9AD6EC05F08B8CD6EC10
:100A700005F08B9CF00E821602500F0B8212D6EC02
:100A800005F08B8CD6EC05F08B9C0F0E94121200A7
:100A90001200026EF00E9416F00E821602380F0B42
:100AA0000F0B82128B9A8B98D6EC05F08B8CD6ECC0
:100AB00005F08B9CF00E821602500F0B8212D6ECC2
:100AC00005F08B8CD6EC05F08B9C0F0E9412120067
:100AD00012008B8A8B98D6EC05F08B8CD6EC05F047
:100AE00082A60AD08B9CD6EC05F08B8CD6EC05F058
:100AF0008B9C8B9A010E12008B9CD6EC05F08B8C94
:100B0000D6EC05F08B9C8B9A000E12001200130E8F
:100B1000086E000E096E11C00AF012C00BF0000E34
:100B20000D6E0A0E0C6EF9EC03F0130E036E000E40
:100B3000046E4EEC04F01200280EA1EC03F000D07D
:100B400069EC05F00009D8A4FBD7060E49EC05F0C6
:100B50000C0E49EC05F01200026E0D0E016EFC0E3B
:100B6000E82EFED7012EFCD7022EF7D71200120076
:100B7000016E210EE82EFED700F0012EFAD71200EA
:100B80001200016EFA0E00F0E82EFDD7012EFAD702
:100B900012001200176A000EF86E00010CEF03F04D
:100BA000016E00F0012EFDD712001200120ED0ECE3
:040BB00005F012003A
:020000040020DA
:08000000FFFFFFFFFFFFFFFF00
:020000040030CA
:0E000000FF08071EFF0F81FF0FC00FE00F402B
:00000001FF
