:04000000E9EF04F030
:100600000054657374696E67204D65737361676527
:10061000004C4344204C696E652032200000000EDF
:10062000956E000E8C6EBBEC04F0000EEAEC03F04D
:10063000000E41EC04F00F0E41EC04F0110E41EC01
:1006400004F0110E41EC04F0110E41EC04F00F0E19
:1006500041EC04F0070E41EC04F0070E41EC04F00D
:10066000080EEAEC03F01F0E41EC04F0110E41EC11
:1006700004F0110E41EC04F0150E41EC04F0110EE3
:1006800041EC04F0110E41EC04F0110E41EC04F0C9
:100690001F0E41EC04F0020E61EC04F0010E036E3B
:1006A000060E046E9FEC04F0400E17EC04F0110EE1
:1006B000036E060E046E9FEC04F0000E41EC04F095
:1006C000010E41EC04F0020E41EC04F0030E41EC8B
:1006D00004F000D08C80320EE0EC04F08C82320EFC
:1006E000E0EC04F08C84320EE0EC04F08C86320EE8
:1006F000E0EC04F08C88320EE0EC04F08C8A320ED0
:10070000E0EC04F08C8C320EE0EC04F08C8E320EB7
:10071000E0EC04F0000E8C6E320EE0EC04F0DAD760
:1007200000EF00F0066E949A9498949C8B9A8B98A4
:100730008B9C260ED7EC04F0300E61EC04F0050E15
:10074000CBEC04F0300E61EC04F0010ECBEC04F0C5
:10075000320E61EC04F000D081EC04F00009D8B452
:1007600002D0FAD700D081EC04F00009D8A4FBD75E
:10077000065061EC04F000D081EC04F00009D8A42C
:10078000FBD7080E61EC04F000D081EC04F0000906
:10079000D8A4FBD70F0E61EC04F000D081EC04F07C
:1007A0000009D8A4FBD7010E61EC04F000D081EC65
:1007B00004F00009D8A4FBD7040E61EC04F000D0CB
:1007C00081EC04F00009D8A4FBD7800E17EC04F0EC
:1007D00012001200056EF00E9416F00E82160550EF
:1007E000026E036A400E0212000E0312040E046E23
:1007F000033403320232042EFBD702500F0B821255
:100800008B9A8B98F6EC04F08B8CF6EC04F08B9CB6
:10081000F00E821605500F0B8212F6EC04F08B8C52
:10082000F6EC04F08B9C0F0E941212001200056E71
:10083000F00E9416F00E82160550026E036A028EB8
:10084000040E046E033403320232042EFBD702502E
:100850000F0B82128B9A8B98F6EC04F08B8CF6ECD3
:1008600004F08B9CF00E821605500F0B8212F6ECF2
:1008700004F08B8CF6EC04F08B9C0F0E941212009B
:100880001200026EF00E9416F00E821602380F0B54
:100890000F0B82128B888B9AF6EC04F08B8CF6ECA3
:1008A00004F08B9CF00E821602500F0B8212F6ECB5
:1008B00004F08B8CF6EC04F08B9C0F0E941212005B
:1008C0001200026EF00E9416F00E821602380F0B14
:1008D0000F0B82128B9A8B98F6EC04F08B8CF6EC53
:1008E00004F08B9CF00E821602500F0B8212F6EC75
:1008F00004F08B8CF6EC04F08B9C0F0E941212001B
:1009000012008B8A8B98F6EC04F08B8CF6EC04F0DA
:1009100082A60AD08B9CF6EC04F08B8CF6EC04F0EB
:100920008B9C8B9A010E12008B9CF6EC04F08B8C46
:10093000F6EC04F08B9C8B9A000E1200120011D082
:1009400000D081EC04F00009D8A4FBD703C0F6FF67
:1009500004C0F7FF0800F55041EC04F0034A042AF4
:1009600000D003C0F6FF04C0F7FF0800F5500009EF
:10097000D8A4E7D71200280E92EC03F000D081EC47
:1009800004F00009D8A4FBD7060E61EC04F00C0EAD
:1009900061EC04F01200026E0D0E016EFC0EE82EEA
:1009A000FED7012EFCD7022EF7D712001200016EDF
:1009B000210EE82EFED700F0012EFAD71200120009
:1009C000016EFA0E00F0E82EFDD7012EFAD71200C4
:1009D0001200000EF86E060EF76E00010FEF03F026
:1009E000016E00F0012EFDD712001200120EF0EC85
:0409F00004F01200FD
:020000040020DA
:08000000FFFFFFFFFFFFFFFF00
:020000040030CA
:0E000000FF08071EFF0F81FF0FC00FE00F402B
:00000001FF
