:040000006EEF04F0AB
:10060000004C43442055707369646520446F776ED5
:100610000048656C6C6F20576F726C64210000009D
:10062000066E949A9498949C8B9A8B988B9C7BECF6
:1006300004F0300EEFEC03F0050E59EC04F0300E30
:10064000EFEC03F0010E59EC04F0320EEFEC03F086
:1006500000D00FEC04F00009D8B402D0FAD700D0D3
:100660000FEC04F00009D8A4FBD70650EFEC03F020
:1006700000D00FEC04F00009D8A4FBD7080EEFEC73
:1006800003F000D00FEC04F00009D8A4FBD70F0E44
:10069000EFEC03F000D00FEC04F00009D8A4FBD776
:1006A000010EEFEC03F000D00FEC04F00009D8A429
:1006B000FBD7040EEFEC03F000D00FEC04F00009C0
:1006C000D8A4FBD7800EA5EC03F012001200000E98
:1006D000956E000E8C6E49EC04F0110E036E060E42
:1006E000046E2DEC04F0400EA5EC03F0010E036E39
:1006F000060E046E2DEC04F000D08C80320E65ECFA
:1007000004F08C82320E65EC04F08C84320E65ECC1
:1007100004F08C86320E65EC04F08C88320E65ECA9
:1007200004F08C8A320E65EC04F08C8C320E65EC91
:1007300004F08C8E320E65EC04F0000E8C6E320EDE
:1007400065EC04F0DAD700EF00F0056EF00E9416B9
:10075000F00E82160550026E036A028E040E046EBD
:10076000033403320232042EFBD702500F0B8212E5
:100770008B9A8B987FEC04F08B8C7FEC04F08B9C35
:10078000F00E821605500F0B82127FEC04F08B8C5A
:100790007FEC04F08B9C0F0E941212001200026E7C
:1007A000F00E9416F00E821602380F0B0F0B821209
:1007B0008B888B9A7FEC04F08B8C7FEC04F08B9C05
:1007C000F00E821602500F0B82127FEC04F08B8C1D
:1007D0007FEC04F08B9C0F0E941212001200026E3C
:1007E000F00E9416F00E821602380F0B0F0B8212C9
:1007F0008B9A8B987FEC04F08B8C7FEC04F08B9CB5
:10080000F00E821602500F0B82127FEC04F08B8CDC
:100810007FEC04F08B9C0F0E9412120012008B8A56
:100820008B987FEC04F08B8C7FEC04F082A60AD0CE
:100830008B9C7FEC04F08B8C7FEC04F08B9C8B9A70
:10084000010E12008B9C7FEC04F08B8C7FEC04F08B
:100850008B9C8B9A000E1200120011D000D00FEC6E
:1008600004F00009D8A4FBD703C0F6FF04C0F7FFCB
:100870000800F550CFEC03F0034A042A00D003C06F
:10088000F6FF04C0F7FF0800F5500009D8A4E7D729
:100890001200280E10EC03F000D00FEC04F0000959
:1008A000D8A4FBD7060EEFEC03F00C0EEFEC03F030
:1008B0001200026E0D0E016EFC0EE82EFED7012E08
:1008C000FCD7022EF7D712001200016EFA0E00F0CC
:1008D000E82EFDD7012EFAD712001200000EF86E96
:1008E000060EF76E000167EF03F0016E00F0012EB7
:1008F000FDD7120012001E0E75EC04F01200120E4D
:0609000075EC04F012008A
:020000040020DA
:08000000FFFFFFFFFFFFFFFF00
:020000040030CA
:0E000000FF08071EFF0F81FF0FC00FE00F402B
:00000001FF
