:04000000D6EF04F043
:100600000048656C6C6F20576F726C6439004C4306
:100610004420446F776E0000000E956E000E8C6EC5
:10062000B1EC04F0000EE0EC03F0000E37EC04F047
:100630000F0E37EC04F0110E37EC04F0110E37EC0E
:1006400004F0110E37EC04F00F0E37EC04F0070E37
:1006500037EC04F0070E37EC04F0080EE0EC03F082
:100660001F0E37EC04F0110E37EC04F0110E37ECCE
:1006700004F0150E37EC04F0110E37EC04F0110EF7
:1006800037EC04F0110E37EC04F01F0E37EC04F0D9
:10069000020E57EC04F0010E036E060E046E95EC8C
:1006A00004F0400E0DEC04F00E0E036E060E046E08
:1006B00095EC04F0000E37EC04F0010E37EC04F07A
:1006C00000D08C80320ECDEC04F08C82320ECDEC5A
:1006D00004F08C84320ECDEC04F08C86320ECDEC1E
:1006E00004F08C88320ECDEC04F08C8A320ECDEC06
:1006F00004F08C8C320ECDEC04F08C8E320ECDECEE
:1007000004F0000E8C6E320ECDEC04F0DAD700EF60
:1007100000F0066E949A9498949C8B9A8B988B9C7C
:10072000E3EC04F0300E57EC04F0050EC1EC04F0DD
:10073000300E57EC04F0010EC1EC04F0320E57EC11
:1007400004F000D077EC04F00009D8B402D0FAD756
:1007500000D077EC04F00009D8A4FBD7065057EC82
:1007600004F000D077EC04F00009D8A4FBD7080E01
:1007700057EC04F000D077EC04F00009D8A4FBD7C4
:100780000F0E57EC04F000D077EC04F00009D8A469
:10079000FBD7010E57EC04F000D077EC04F0000911
:1007A000D8A4FBD7040E57EC04F000D077EC04F08B
:1007B0000009D8A4FBD7800E0DEC04F01200120043
:1007C000056EF00E9416F00E82160550026E036A46
:1007D000400E0212000E0312040E046E03340332A4
:1007E0000232042EFBD702500F0B82128B9A8B9889
:1007F000E7EC04F08B8CE7EC04F08B9CF00E821697
:1008000005500F0B8212E7EC04F08B8CE7EC04F040
:100810008B9C0F0E941212001200056EF00E9416AF
:10082000F00E82160550026E036A028E040E046EEC
:10083000033403320232042EFBD702500F0B821214
:100840008B9A8B98E7EC04F08B8CE7EC04F08B9C94
:10085000F00E821605500F0B8212E7EC04F08B8C21
:10086000E7EC04F08B9C0F0E941212001200026E43
:10087000F00E9416F00E821602380F0B0F0B821238
:100880008B888B9AE7EC04F08B8CE7EC04F08B9C64
:10089000F00E821602500F0B8212E7EC04F08B8CE4
:1008A000E7EC04F08B9C0F0E941212001200026E03
:1008B000F00E9416F00E821602380F0B0F0B8212F8
:1008C0008B9A8B98E7EC04F08B8CE7EC04F08B9C14
:1008D000F00E821602500F0B8212E7EC04F08B8CA4
:1008E000E7EC04F08B9C0F0E9412120012008B8A1E
:1008F0008B98E7EC04F08B8CE7EC04F082A60AD02E
:100900008B9CE7EC04F08B8CE7EC04F08B9C8B9ACF
:10091000010E12008B9CE7EC04F08B8CE7EC04F0EA
:100920008B9C8B9A000E1200120011D000D077EC35
:1009300004F00009D8A4FBD703C0F6FF04C0F7FFFA
:100940000800F55037EC04F0034A042A00D003C035
:10095000F6FF04C0F7FF0800F5500009D8A4E7D758
:100960001200280E89EC03F000D077EC04F00009A7
:10097000D8A4FBD7060E57EC04F00C0E57EC04F08D
:100980001200026E0D0E016EFC0EE82EFED7012E37
:10099000FCD7022EF7D712001200016EFA0E00F0FB
:1009A000E82EFDD7012EFAD712001200000EF86EC5
:1009B000060EF76E00010CEF03F0016E00F0012E41
:1009C000FDD7120012001E0EDDEC04F01200120E14
:0609D000DDEC04F0120052
:020000040020DA
:08000000FFFFFFFFFFFFFFFF00
:020000040030CA
:0E000000FF08071EFF0F81FF0FC00FE00F402B
:00000001FF
