:040000002EEF03F0EC
:0E0180000102040810204080402010080402F4
:100600000000000E016E000E956EFE0E966E00D07C
:100610000150010D800EF324F66E010EF420F76EEA
:10062000F86A000EF8220800F5CF8CFF8D80012AB1
:100630000E0E0118D8A403D0000E016E00D01E0EBD
:1006400025EC03F0E5D700EF00F0026EFA0E00F0A3
:10065000E82EFDD7022EFAD712001200016A000E12
:08066000F86E000101EF03F048
:020000040020DA
:08000000FFFFFFFFFFFFFFFF00
:020000040030CA
:0E000000FF08071EFF0F81FF0FC00FE00F402B
:00000001FF
