:100000000A128A11FC2F00308A000408840A820731
:1000100000347734773477342E3465346C34653477
:100020006334743472346F3453346F346D346534E4
:100030002E3463346F346D3400344C3443344434E0
:1000400020344C346934623472346134723479341B
:10005000203466346F34723400344434653476347A
:1000600065346C346F347034653464342034423415
:100070007934003465346C346534633474347234E8
:100080006F3453346F346D34653400344D34503430
:100090004C344134423420345834433438340034FE
:100B660000300A128A11EE250A128A1101300A1281
:100B76008A11EE25080001300A128A11EE250A12A2
:100B86008A1108300A128A11EE25080001300A126D
:100B96008A11EE250A128A110C300A128A11EE25E4
:100BA6000800F000701CDB2D831203130816DE2DDF
:100BB600831203130812F01CE22D8816E32D881207
:100BC600701DE72D0817E82D0813F01DEC2D88176A
:100BD600080088130800F300831203130811730832
:100BE6000A128A11D4250A128A1183120313881550
:100BF6000B30F2006230F100F10BFF2DF20BFF2DEE
:100C060000008312031388110800F700F501F601AE
:100C16007508770784000A128A1103200A128A11BE
:100C2600003A031908007508770784000A128A112A
:100C360003200A128A110A128A112A260A128A1116
:100C46000130F5070318F60A0030F6070B2EF400FC
:100C560074080F39F1007108F2007408F039F100D8
:100C66007108F3008312031308157308F1000430AA
:100C76000310F10CFF3E031D3B2E71080A128A1168
:100C8600D4250A128A118312031388151A30F1002B
:100C9600F10B4B2E000083120313881172080A12FF
:100CA6008A11D4250A128A118312031388151A3061
:100CB600F100F10B5C2E000083120313881108006B
:100CC600F7007703031D882E74087F3EF50075082C
:100CD600FA007A08F50004300310F50CFF3E031DF8
:100CE6006F2E7508F6007608F8007A080F39F500B9
:100CF6007508F90078080A128A11EE250A128A1177
:100D060079080A128A11EE25080002307706031DBB
:100D160008007408BF3EF5007508FA007A08F50069
:100D260004300310F50CFF3E031D942E7508F600E3
:100D36007608F8007A080F39F5007508F900780882
:100D46000A128A11EE250A128A1179080A128A11E4
:100D5600EE25080000300A128A11D4250A128A11DB
:100D66003430F500F130F400F40BB72EF50BB72E46
:100D7600BC2E03300A128A11EE250A128A110D3092
:100D8600F500FB30F400F40BC62EF50BC62ECB2E69
:100D960003300A128A11EE250A128A111D30F50057
:100DA6009130F400F40BD52EF50BD52E03300A1234
:100DB6008A11EE250A128A1102300A128A11EE25CC
:100DC6000A128A1102300A128A11EE250A128A11B3
:100DD60008300A128A11EE250A128A1100300A1208
:100DE6008A11EE250A128A110C300A128A11EE2592
:100DF6000A128A1100300A128A11EE250A128A1185
:100E060006300A128A11EE2508008316031388019C
:100E16000A128A11AD260A128A110A128A11B325FC
:100E26000A128A11F401F40A01300A128A116326A1
:100E36000A128A1115300A128A1108260A128A1114
:100E4600F401F40A02300A128A1163260A128A1180
:100E56003E300A128A1108260A128A111530FD0040
:100E66004B30FC00D130FB00FB0B372FFC0B372F30
:100E7600FD0B372F00000A128A11B3250A128A11B8
:100E8600F401F40A01300A128A1163260A128A1141
:100E960025300A128A1108260A128A11F401F40A68
:100EA60002300A128A1163260A128A1132300A1295
:100EB6008A1108260A128A111530FD004B30FC00F3
:100EC600D130FB00FB0B652FFC0B652FFD0B652F4F
:100ED60000000A128A11B3250A128A11F401F40AD3
:100EE60001300A128A1163260A128A1101300A1287
:100EF6008A1108260A128A1183120313A001A1017E
:100F0600003021020F30031920020318AB2F0430E2
:100F1600FD000C30FC003530FB00FB0B902FFC0B6A
:100F2600902FFD0B902F972F0A128A11BE250A12B9
:100F36008A11013083120313A0070318A10A003097
:100F4600A107003021020F3003192002031C8A2F4B
:100F5600A001A101003021020F300319200203185D
:100F6600D52F0430FD000C30FC003530FB00FB0BA8
:100F7600BA2FFC0BBA2FFD0BBA2FC12F0A128A11FA
:100F8600C9250A128A11013083120313A007031818
:100F9600A10A0030A107003021020F3003192002F8
:100FA600031CB42F0A128A11B3250A128A11F401FE
:100FB600F40A02300A128A1163260A128A1165306F
:100FC6000A128A112A260A128A1153300A128A1123
:100FD6002A260A128A111530FD004B30FC00D1304A
:100FE600FB00FB0BF42FFC0BF42FFD0BF42F000082
:0A0FF600102F83010A128A11082F40
:02400E007AFF37
:00000001FF
