:020000040000FA
:0600000094EF00F0120075
:020006000000F8
:08000800060EF66E000EF76E05
:10001000000EF86E00010900F550656F0900F550FB
:10002000666F03E1656701D03DD00900F550606F50
:100030000900F550616F0900F550626F0900090071
:10004000F550E96E0900F550EA6E09000900090053
:10005000F550636F0900F550646F09000900F6CF91
:1000600067F0F7CF68F0F8CF69F060C0F6FF61C0C5
:10007000F7FF62C0F8FF0001635302E1645307E039
:100080000900F550EE6E6307F8E26407F9D767C020
:10009000F6FF68C0F7FF69C0F8FF00016507000EB2
:0600A000665BBFD71200F1
:0A00A600959E95909592070ECA6E84
:1000B000F90ECB6E4C0EBD6E8C708C72BE6A0FD872
:1000C000100EBE6E0CD8200EBE6E09D8400EBE6E4D
:1000D00006D8800EBE6E03D8BE6801D8EDD7E6689C
:0800E00074EC00F0E55212007F
:0800E800FF0EE350026E480E0A
:1000F00001D04C0EE76EE72EFED7E76AE72EFED75B
:08010000022EF7D700001200E7
:08010800000EF36E00EE00F0A2
:10011000060E01D81200EA6002D0EE6AFCD7F35056
:08012000E9601200EE6AFCD751
:0801280015EE00F025EE00F0D9
:10013000F86A019C04EC00F0A2EC00F053EC00F033
:04014000FBD71200D7
:020144001200A7
:020000040030CA
:0100010008F6
:0100020007F6
:010003001EDE
:010005000FEB
:010006008178
:010008000FE8
:01000900C036
:01000A000FE6
:01000B00E014
:01000C000FE4
:01000D0040B2
:00000001FF
