:04000000A3EF04F076
:1001800000122436485A5A6C7E90A2B4C6D8EAFFB0
:100600000054657374696E6720004C43443A0031AE
:1006100032000000066E949A9498949C8B9A8B9862
:100620008B9C260E91EC04F0300E2BEC04F0050EA2
:1006300079EC04F0300E2BEC04F0010E79EC04F0B0
:10064000320E2BEC04F000D04BEC04F00009D8B4CF
:1006500002D0FAD700D04BEC04F00009D8A4FBD7A5
:1006600006502BEC04F000D04BEC04F00009D8A4A9
:10067000FBD7080E2BEC04F000D04BEC04F0000983
:10068000D8A4FBD70F0E2BEC04F000D04BEC04F0F9
:100690000009D8A4FBD7010E2BEC04F000D04BECE2
:1006A00004F00009D8A4FBD7040E2BEC04F000D012
:1006B0004BEC04F00009D8A4FBD7800EE1EC03F06A
:1006C00012001200000E956E9280000E8C6EF19E4C
:1006D0007C8085EC04F0AAEC04F069EC04F0020ED6
:1006E0002BEC04F0010E036E060E046EB1EC03F069
:1006F000400EE1EC03F00A0E036E060E046EB1EC40
:1007000003F0010E8C6E0C0E076E0C0E086E00D0FE
:10071000B1EC04F0076E07380F0B076E0750010DA0
:10072000800EF324F66E010EF420F76EF86A000EC8
:10073000F8220800F5CFBEFF00D04BEC04F0000912
:10074000D8A4FBD7450EE1EC03F00F0E036E060EA6
:10075000046EB1EC03F01E0E9AEC04F0D9D700EF52
:1007600000F01BD000D04BEC04F00009D8A4FBD75C
:1007700003C0F6FF04C0F7FFF86A050EF76403D064
:100780000800F55005D0F6CFE9FFF7CFEAFFEF50AC
:100790000BEC04F0034A042A00D003C0F6FF04C0A7
:1007A000F7FFF86A050EF76403D00800F55005D08E
:1007B000F6CFE9FFF7CFEAFFEF500009D8A4D3D76F
:1007C0001200056EF00E9416F00E82160550026EA1
:1007D000036A028E040E046E033403320232042EC6
:1007E000FBD702500F0B82128B9A8B98BEEC04F051
:1007F0008B8CBEEC04F08B9CF00E821605500F0B18
:100800008212BEEC04F08B8CBEEC04F08B9C0F0EBD
:10081000941212001200026EF00E9416F00E821660
:1008200002380F0B0F0B82128B888B9ABEEC04F0F0
:100830008B8CBEEC04F08B9CF00E821602500F0BDA
:100840008212BEEC04F08B8CBEEC04F08B9C0F0E7D
:10085000941212001200026EF00E9416F00E821620
:1008600002380F0B0F0B82128B9A8B98BEEC04F0A0
:100870008B8CBEEC04F08B9CF00E821602500F0B9A
:100880008212BEEC04F08B8CBEEC04F08B9C0F0E3D
:100890009412120012008B8A8B98BEEC04F08B8CA1
:1008A000BEEC04F082A60AD08B9CBEEC04F08B8CCC
:1008B000BEEC04F08B9C8B9A010E12008B9CBEEC5C
:1008C00004F08B8CBEEC04F08B9C8B9A000E120013
:1008D0001200280E0AEC03F000D04BEC04F00009E3
:1008E000D8A4FBD7060E2BEC04F00C0E2BEC04F076
:1008F0001200026E0D0E016EFC0EE82EFED7012EC8
:10090000FCD7022EF7D712001200000E7E6E000EEA
:100910007F6E7E80000EC16E380EC06E010EC26EFC
:100920001200016E210EE82EFED700F0012EFAD73C
:1009300012001200016EFA0E00F0E82EFDD7012E13
:10094000FAD712001200086A076A000EF86E00015A
:1009500062EF03F0F90ECB6E070ECA6E4C0EBD6E41
:100960001200C28200D0C2B2FED7C45012001200E0
:10097000016E00F0012EFDD712001200120EB8EC2D
:0409800004F012006D
:020000040020DA
:08000000FFFFFFFFFFFFFFFF00
:020000040030CA
:0E000000FF08071EFF0F81FF0FC00FE00F402B
:00000001FF
